:100000000C942A000C9447000C9482000C94470036
:100010000C9447000C9447000C9447000C94470044
:100020000C9447000C9447000C948B020C944700EE
:100030000C9447000C9457040C9447000C94470010
:100040000C9447000C9447000C9447000C94470014
:100050000C94470011241FBECFE5D8E0DEBFCDBF12
:1000600011E0A0E6B0E0E6E0F8E202C005900D92F3
:10007000AE31B107D9F722E0AEE1B1E001C01D9287
:10008000A239B207E1F70E94D2060C9401140C9435
:100090000000CF93DF93CDB7DEB763E070E082E07E
:1000A00090E00E94DF136BE070E084E090E00E943B
:1000B000DF138091680090916900BC0186E090E0B8
:1000C0000E94DF130000DF91CF910895CF93DF935B
:1000D000CDB7DEB782E090E00E94D913809375021D
:1000E00084E090E00E94D9138093900286E090E033
:1000F0000E94D91390936900809368000000DF91FB
:10010000CF9108951F920F9200905F000F921124DB
:100110002F933F934F935F938F939F93EF93FF930F
:10012000CF93DF93CDB7DEB780911F01882F90E08A
:100130008130910509F48DC0823091051CF4892B22
:1001400049F0D8C18230910509F420C1039709F420
:1001500093C1D0C180912001813009F0C4C1809148
:10016000830290918402019690938402809383028B
:1001700080911E01882F90E08230910509F1833033
:10018000910509F440C0019709F0ADC183E490E006
:10019000FC018081282F30E0809160009091610007
:1001A0002817390709F04FC080918302909184028B
:1001B000909372028093710282E080931E0143C08B
:1001C00083E490E0FC018081282F30E08091600082
:1001D000909161002817390771F480917E02813077
:1001E00051F4809146019091470101969093470107
:1001F000809346012AC080917E02882331F583E0F6
:1002000080931E0122C080917E02882349F4809150
:1002100048019091490101969093490180934801CA
:1002200083E490E0FC018081282F30E0809162001F
:10023000909163002817390751F484E080931E01E0
:100240001092200104C000004EC100004CC100000B
:100250004AC180912001813009F047C18091830219
:10026000909184020196909384028093830285E3A7
:1002700090E025E330E0F901308124E02327FC0100
:10028000208380911E01882F90E08230910541F1FA
:1002900083309105B9F1019709F027C183E490E01B
:1002A000FC018081282F30E08091600090916100F6
:1002B0002817390709F066C0209151013091520189
:1002C0008091480190914901A901481B590BCA012D
:1002D000909323018093220182E080931E0152C0FB
:1002E0002091830230918402809122019091230118
:1002F0002817390708F448C010927E0283E08093E3
:100300001E0142C080912101882F90E0009741F1A9
:10031000029709F03AC080912401813079F581E09B
:100320008093240180918502909186020197909399
:100330008602809385028091850290918602892BA6
:10034000E9F41092200110922101809166009091B1
:1003500067009093860280938502109224010EC05C
:100360002091830230918402809151019091520139
:100370002817390728F01092200102C0000005C09C
:10038000000003C00000B1C00000AFC08091200198
:10039000813009F0ACC08091830290918402019673
:1003A000909384028093830285E390E025E330E01C
:1003B000F901308124E02327FC01208380911E0174
:1003C000882F90E08130910519F0029799F08FC045
:1003D000209183023091840280918E0290918F024D
:1003E0002817390708F446C010927E0282E08093F5
:1003F0001E0140C080912101882F90E0009741F1BB
:10040000029709F038C080912401813079F581E0AC
:1004100080932401809185029091860201979093A8
:100420008602809385028091850290918602892BB5
:10043000E9F41092200110922101809166009091C0
:1004400067009093860280938502109224010EC06B
:100450002091830230918402809151019091520148
:100460002817390728F01092200102C0000003C0AD
:10047000000001C000003BC0809120018130C9F51F
:1004800085E390E025E330E0F901308124E0232783
:10049000FC01208380911E01882F90E0813091051E
:1004A00019F0029749F025C080917E028823B9F4A3
:1004B00082E080931E0113C083E490E0FC01808100
:1004C000282F30E08091620090916300281739074F
:1004D00041F483E080931E011092200102C00000CD
:1004E00008C0000006C0000005C0000003C00000F6
:1004F00001C000000000DF91CF91FF91EF919F912B
:100500008F915F914F913F912F910F9000925F00DB
:100510000F901F9018951F920F9200905F000F92FE
:1005200011242F933F938F939F93EF93FF93CF9338
:10053000DF93CDB7DEB780914F0190915001883E97
:100540009D4F48F480914F019091500101969093F6
:10055000500180934F0180917E02813019F52091E6
:100560004F013091500180916400909165002817EF
:100570003907C0F01092500110924F0183E490E0CF
:10058000FC018081282F30E0809160009091610013
:100590002817390738F483E490E0FC0120812F5FAD
:1005A000FC01208380917E02882319F520914F0160
:1005B00030915001809164009091650028173907AF
:1005C000C0F01092500110924F0183E490E0FC01C2
:1005D0008081282F30E08091620090916300821723
:1005E000930738F483E490E0FC0120812150FC0162
:1005F000208380912C01813071F580912D019091A3
:100600002E018436910548F480912D0190912E01A0
:10061000019690932E0180932D0188E490E0FC01D7
:10062000808191818F3F910538F580912D019091C6
:100630002E018436910500F188E490E0FC012081D0
:1006400031812F5F3F4FFC013183208310922E01B7
:1006500010922D0111C088E490E0FC01808191810D
:10066000892B51F088E490E0FC01208131812150F8
:100670003109FC01318320838091610290916202F3
:10068000892B49F0809161029091620201979093C9
:1006900062028093610280918C0290918D02892B7D
:1006A00049F080918C0290918D02019790938D0278
:1006B00080938C028091730290917402892B49F08F
:1006C00080917302909174020197909374028093C9
:1006D00073020000DF91CF91FF91EF919F918F9175
:1006E0003F912F910F9000925F000F901F901895EF
:1006F000CF93DF93CDB7DEB780912501813099F498
:1007000080914A01882379F481E080937E0281E020
:1007100080931E0181E08093200182E08093250177
:1007200081E080934A0180912501823099F4809183
:100730004A01882379F480914601909147018132E2
:100740009E4428F083E08093250110927E0281E090
:1007500080934A0180912501833071F480914A0190
:10076000882351F480911E01843019F484E0809331
:10077000250181E080934A0180912501843051F464
:1007800080914A01882331F485E08093250181E03E
:1007900080934A0110924A010000DF91CF910895A1
:1007A000CF92DF92EF92FF92CF93DF9300D0CDB73D
:1007B000DEB79A83898381E080931E0110928402C0
:1007C0001092830289819A81909352018093510102
:1007D00020917102309172028091480190914901FB
:1007E000280F391F80915101909152012817390724
:1007F00008F44AC082E080931F01809151019091DA
:100800005201CC01A0E0B0E0BC01CD010E949E12DB
:100810006B017C018091680290916902CC01A0E09B
:10082000B0E0BC01CD010E949E12DC01CB019C0115
:10083000AD01C701B6010E942C13DC01CB0120E001
:1008400030E04AE754E4BC01CD010E94FD11DC0117
:10085000CB01BC01CD010E946F12DC01CB01909352
:100860008F0280938E02209151013091520180912C
:100870008E0290918F02A901481B590BCA019093D7
:100880008F0280938E0203C081E080931F0181E07C
:1008900080937E0281E08093200100000F900F90F2
:1008A000DF91CF91FF90EF90DF90CF9008951F924E
:1008B0000F9200905F000F9211242F938F939F93BC
:1008C000EF93FF93CF93DF9300D0CDB7DEB78CE2E9
:1008D00090E0FC0180818A8380913D01882F90E027
:1008E0008D5A9E4F2A81FC01208380913D018530E5
:1008F00078F180915301893059F580915401883005
:1009000039F580915501873019F58091560186306F
:10091000F9F4809157018530D9F4809158018430E1
:10092000B9F419820AC08981882F90E08D5A9E4FB0
:10093000FC01108289818F5F898389818A3098F3D5
:1009400010923D0181E490E029E0FC012083FFCF7B
:1009500080913D01853030F480913D018F5F80931F
:100960003D0116C08091540180935301809155013F
:1009700080935401809156018093550180915701D5
:10098000809356018091580180935701109258012D
:1009900000000F900F90DF91CF91FF91EF919F9109
:1009A0008F912F910F9000925F000F901F901895DC
:1009B000CF93DF93CDB7DEB789E290E027E4FC0167
:1009C000208380E490E0FC0110828AE290E028E934
:1009D000FC01208380E490E026E8FC0120830000F5
:1009E000DF91CF910895CF93DF93CDB7DEB76397B3
:1009F0000FB6F894DEBF0FBECDBF80E090E8A8E24E
:100A0000B0E089839A83AB83BC8389819A81AB816F
:100A1000BC810D97A105B10548F489819A81AB810C
:100A2000BC818D839E83AF83B887CBC089819A8137
:100A3000AB81BC8181309440A105B105C0F58981AD
:100A40009A81AB81BC810197A109B10989839A83FD
:100A5000AB83BC8389819A81AB81BC81B695A79514
:100A600097958795B695A7959795879589879A873E
:100A7000AB87BC8789819A81AB81BC8183709927C0
:100A8000AA27BB278D839E83AF83B88789859A85E4
:100A9000AB85BC85892B8A2B8B2B09F492C0898569
:100AA0008D878D858A9501F0E9F78D878AC08981C8
:100AB0009A81AB81BC810297A440B10508F03CC08B
:100AC00089819A81AB81BC810297A109B10989838F
:100AD0009A83AB83BC8389819A81AB81BC81B695B3
:100AE000A79597958795B695A795979587958987A3
:100AF0009A87AB87BC8789819A81AB81BC818370DF
:100B00009927AA27BB278D839E83AF83B8878985C2
:100B10009A85AB85BC85892B8A2B8B2B09F451C018
:100B200089859A859F878E878E859F850197F1F7A6
:100B300000009F878E8745C089819A81AB81BC81E7
:100B40000497A109B10989839A83AB83BC83898106
:100B50009A81AB81BC81689412F8B695A795979558
:100B600087951694D1F789879A87AB87BC87898147
:100B70009A81AB81BC8187709927AA27BB278D8377
:100B80009E83AF83B88789859A85AB85BC85892B81
:100B90008A2B8B2BB1F089859A85AB85BC85888B98
:100BA000998BAA8BBB8B88899989AA89BB89019764
:100BB000A109B109000001F0D1F7888B998BAA8BAC
:100BC000BB8B8D819E81AF81B8850197A105B10551
:100BD00009F400008D819E81AF81B8850297A1053F
:100BE000B10509F400C08D819E81AF81B88503975E
:100BF000A105B10509F4C8958D819E81AF81B885A5
:100C00000497A105B10511F4C89500008D819E815E
:100C1000AF81B8850597A105B10511F4C89500C04D
:100C20008D819E81AF81B8850697A105B10511F42C
:100C3000C895C8958D819E81AF81B8850797A1051C
:100C4000B10519F4C895C89500008D819E81AF81CA
:100C5000B8850897A105B10519F4C895C89500C0D5
:100C60008D819E81AF81B8850997A105B10519F4E1
:100C7000C895C895C8958D819E81AF81B8850A9722
:100C8000A105B10521F4C895C895C89500008D81CE
:100C90009E81AF81B8850B97A105B10521F4C89558
:100CA000C895C89500C08D819E81AF81B8850C978D
:100CB000A105B10521F4C895C895C895C89500004F
:100CC00063960FB6F894DEBF0FBECDBFDF91CF9114
:100CD0000895CF93DF93CDB7DEB781E080933001E5
:100CE00080912A0190912B01C2974CF480912A01A6
:100CF00090912B01019690932B0180932A01809172
:100D000029018130B9F48091800290918102883E5E
:100D1000934020F081E080934E010CC080918002CE
:100D2000909181020196909381028093800281E0EC
:100D300080934E010000DF91CF910895CF93DF9310
:100D4000CDB7DEB781E08093300180912A01909188
:100D50002B01C2974CF480912A0190912B010196AE
:100D600090932B0180932A01809129018130B1F465
:100D700080918002909181020B9720F481E0809312
:100D80004E010CC080918002909181020197909356
:100D900081028093800281E080934E010000DF9108
:100DA000CF910895CF92DF92EF92FF920F931F930E
:100DB000CF93DF93CDB7DEB7EF970FB6F894DEBFD2
:100DC0000FBECDBF8AE390E0FC0110828BE390E080
:100DD0002EEFFC01208388E390E028E330E0F90166
:100DE00020812460FC01208384E390E02CE0FC015E
:100DF000208385E390E020EFFC01208381E390E0F5
:100E000020E9FC01208382E390E02FE6FC012083AF
:100E100078940E94D8040E9402110E94851160E01B
:100E200080E00E945C1182E790E00E94301161E056
:100E300080E00E945C1186E890E00E94301163E03F
:100E400080E00E945C118AE990E00E94301180E00D
:100E500090EEA0E1B0E08D839E83AF83B8878D8153
:100E60009E81AF81B8850D97A105B10548F48D81AC
:100E70009E81AF81B88589879A87AB87BC87CBC0B5
:100E80008D819E81AF81B88581309440A105B105E7
:100E9000C0F58D819E81AF81B8850197A109B10907
:100EA0008D839E83AF83B8878D819E81AF81B88506
:100EB000B695A79597958795B695A7959795879594
:100EC0008D879E87AF87B88B8D819E81AF81B885D6
:100ED00083709927AA27BB2789879A87AB87BC8706
:100EE0008D859E85AF85B889892B8A2B8B2B09F43C
:100EF00092C08D85898B89898A9501F0E9F7898B64
:100F00008AC08D819E81AF81B8850297A440B105CA
:100F100008F03CC08D819E81AF81B8850297A10900
:100F2000B1098D839E83AF83B8878D819E81AF8108
:100F3000B885B695A79597958795B695A7959795F2
:100F400087958D879E87AF87B88B8D819E81AF8176
:100F5000B88583709927AA27BB2789879A87AB878B
:100F6000BC878D859E85AF85B889892B8A2B8B2B75
:100F700009F451C08D859E859B8B8A8B8A899B89BC
:100F80000197F1F700009B8B8A8B45C08D819E8174
:100F9000AF81B8850497A109B1098D839E83AF8382
:100FA000B8878D819E81AF81B885689412F8B69517
:100FB000A795979587951694D1F78D879E87AF87CC
:100FC000B88B8D819E81AF81B88587709927AA27BC
:100FD000BB2789879A87AB87BC878D859E85AF8520
:100FE000B889892B8A2B8B2BB1F08D859E85AF8597
:100FF000B8898C8B9D8BAE8BBF8B8C899D89AE897C
:10100000BF890197A109B109000001F0D1F78C8BCC
:101010009D8BAE8BBF8B89859A85AB85BC850197EF
:10102000A105B10509F4000089859A85AB85BC85C9
:101030000297A105B10509F400C089859A85AB85A1
:10104000BC850397A105B10509F4C89589859A85E2
:10105000AB85BC850497A105B10511F4C8950000C6
:1010600089859A85AB85BC850597A105B10511F4E5
:10107000C89500C089859A85AB85BC850697A10572
:10108000B10511F4C895C89589859A85AB85BC854D
:101090000797A105B10519F4C895C8950000898581
:1010A0009A85AB85BC850897A105B10519F4C8954B
:1010B000C89500C089859A85AB85BC850997A1052F
:1010C000B10519F4C895C895C89589859A85AB85E9
:1010D000BC850A97A105B10521F4C895C895C895A6
:1010E000000089859A85AB85BC850B97A105B10564
:1010F00021F4C895C895C89500C089859A85AB85A7
:10110000BC850C97A105B10521F4C895C895C89573
:10111000C89583E590E023E530E0F90120812B605C
:10112000FC0120838CE590E02AE0FC01208389E526
:1011300090E029E530E0F90120812260FC01208364
:1011400085E490E025E430E0F90120812366FC018C
:10115000208383E490E02091620030916300FC01E1
:10116000208385E590E028E0FC0120838BE590E07A
:101170002BE530E0F90120812068FC012083789480
:101180008FE490E02FE430E0F90120812162FC013E
:1011900020838EE490E02EE430E0F9012081246089
:1011A000FC012083809166009091670090938602F5
:1011B0008093850281E08093250188EE93E09093EF
:1011C00027018093260102C00E94780380912501A7
:1011D0008530D1F7209171023091720280914801DF
:1011E00090914901820F931F909388028093870208
:1011F0008091710290917202CC01A0E0B0E0BC013C
:10120000CD010E949E126B017C018091870290911A
:101210008802CC01A0E0B0E0BC01CD010E949E128A
:10122000DC01CB019C01AD01C701B6010E94FD119B
:10123000DC01CB0120E030E04AE754E4BC01CD0101
:101240000E942C13DC01CB01BC01CD010E946F1266
:10125000DC01CB01909345018093440180914801CA
:1012600090914901CC01A0E0B0E0BC01CD010E9409
:101270009E126B017C018091870290918802CC01C3
:10128000A0E0B0E0BC01CD010E949E12DC01CB01C8
:101290009C01AD01C701B6010E94FD11DC01CB012B
:1012A00020E030E04AE754E4BC01CD010E942C1359
:1012B000DC01CB01BC01CD010E946F12DC01CB012E
:1012C00090936902809368020E9485111092210117
:1012D00080916A0090916B00A0916C00B0916D00BC
:1012E00027E836E149E450E4BC01CD010E942C130B
:1012F000DC01CB0180933F0190934001A093410119
:10130000B0934201C0903F01D0904001E090410174
:10131000F090420180916E0090916F00CC01A0E0AE
:10132000B0E0BC01CD010E949E12DC01CB019C010A
:10133000AD01C701B6010E94FD11DC01CB01809314
:10134000780290937902A0937A02B0937B020E9474
:10135000660089E390E0FC018081882F90E0817035
:101360009927892B41F080917502833021F4809177
:1013700090028B3009F184E690E0909369008093AD
:1013800068000E94490060E080E00E945C118EEAE3
:1013900090E00E9430110E94F3040E94F3040000C8
:1013A00089E390E0FC018081882F90E0817099278B
:1013B000892BB1F30E9485118AE0809389028AE02B
:1013C00080936C0286E290E024E8FC01208387E2AF
:1013D00090E0FC01108286E290E026E230E0F90124
:1013E00020812064FC012083000086E290E0FC0163
:1013F0008081882F90E080749927892BB1F784E24F
:1014000090E0FC01808191819C838B838B819C8106
:101410000F9784F48091310190913201843F914083
:101420004CF48091310190913201019690933201F8
:10143000809331018B819C818E97ACF08B819C8154
:101440008D34910584F48091330190913401843F6F
:1014500091404CF480913301909134010196909326
:101460003401809333018B819C8186389105ACF0E7
:101470008B819C818D3F910584F480913501909101
:101480003601843F91404CF48091350190913601B2
:10149000019690933601809335018B819C8188342D
:1014A0009140ACF08B819C818E39914084F4809185
:1014B000370190913801843F91404CF4809137017D
:1014C00090913801019690933801809337018B8178
:1014D0009C8181159240ACF08B819C818F3B924026
:1014E00084F48091390190913A01843F91404CF409
:1014F0008091390190913A01019690933A0180933D
:1015000039018B819C8182319340ACF08B819C812D
:101510008B37934084F480913B0190913C01843F50
:1015200091404CF480913B0190913C010196909345
:101530003C0180933B018B819C8180399340C4F0B6
:101540001092320110923101109234011092330145
:101550001092360110923501109238011092370125
:1015600010923A011092390110923C0110923B0105
:1015700080912801882309F07FC060E080E00E940C
:101580005C1180912F01813029F48BEB90E00E9457
:10159000301119C080912F01882349F4809189026C
:1015A0008A3029F080ED90E00E9430110CC08091CB
:1015B0002F01882341F4809189028A3021F485EE3D
:1015C00090E00E94301162E080E00E945C118AEF9E
:1015D00090E00E94301180916800909169009E0116
:1015E000285E3F4F4AE050E0B9010E949913CE01B6
:1015F00048960E94301186E091E00E94301180915F
:101600003501909136010B977CF080916F0290919B
:101610007002449748F480916F0290917002019695
:101620009093700280936F02809135019091360102
:10163000892B11F580916F02909170020A97B0F09A
:1016400081E08093280181E080934B0181E08093C9
:101650004E0181E08093290180916800909169009A
:1016600090938102809380020E94851181E090E036
:101670009093700280936F0280912801813009F06D
:1016800084C180913501909136010B9784F080914F
:101690008A0290918B028436910548F480918A02E7
:1016A00090918B02019690938B0280938A02809195
:1016B000350190913601892B59F580918A029091DC
:1016C0008B02C297F8F080912901882379F48091E8
:1016D00029018F5F8093290181E080934B0181E094
:1016E00090E090938B0280938A020CC081E08093FB
:1016F000290181E080934B0181E090E090938B027F
:1017000080938A0281E090E090938B0280938A021A
:1017100080913701909138010B9784F08091660297
:10172000909167028436910548F480916602909109
:101730006702019690936702809366028091370159
:1017400090913801892B01F5809166029091670292
:10175000C297D0F00E94851180913001813061F4F0
:10176000809180029091810290936900809368003B
:101770000E944900109230011092280181E090E00F
:10178000909367028093660280913B0190913C01A7
:101790000B971CF1809176029091770288389341E3
:1017A00048F48091760290917702019690937702A7
:1017B000809376028091760290917702209170005A
:1017C000309171008217930740F00E94690681E012
:1017D00090E0909377028093760280913B01909104
:1017E0003C01892B79F480917602909177028536BD
:1017F000910540F00E94690681E090E090937702A5
:10180000809376028091390190913A010B971CF1F7
:1018100080916A0290916B028838934148F48091DC
:101820006A0290916B02019690936B0280936A0218
:1018300080916A0290916B0220917000309171004A
:101840008217930740F00E949E0681E090E09093FB
:101850006B0280936A028091390190913A01892B41
:1018600079F480916A0290916B028536910540F07F
:101870000E949E0681E090E090936B0280936A0242
:1018800080912A0190912B010B9764F080912A019D
:1018900090912B01449734F484E690E0909371008A
:1018A0008093700080912A0190912B01469734F02B
:1018B0008AE090E0909371008093700080913901EC
:1018C00090913A01892B81F480913B0190913C01E8
:1018D000892B51F410922B0110922A0180ED97E090
:1018E000909371008093700080914B01813039F5A5
:1018F0000E94851180912901813061F48CE091E092
:101900000E94301161E080E00E945C1183E191E06F
:101910000E94301180912901823061F487E191E0C9
:101920000E94301161E080E00E945C1183E191E04F
:101930000E94301181E080934E0110924B01809102
:101940004E01813011F580912901813031F480916F
:101950008002909181029A83898361E089E00E94EC
:101960005C119E01285E3F4F89819A814AE050E0D8
:10197000B9010E949913CE0148960E9430118CE162
:1019800091E00E94301110924E0180E390E0FC0142
:101990008081882F90E084709927892B31F0809185
:1019A0003301909134010A9784F080914C01909119
:1019B0004D01883E934048F480914C0190914D0137
:1019C000019690934D0180934C0180E390E0FC01DF
:1019D0008081882F90E084709927892B99F08091DD
:1019E000330190913401892B69F480914C019091DD
:1019F0004D010B9718F081E080932F0110924D015B
:101A000010924C0180E390E0FC018081882F90E0EF
:101A100080729927892B31F08091310190913201A8
:101A20000A9784F080917C0290917D02883E9340D9
:101A300048F480917C0290917D02019690937D0202
:101A400080937C0280E390E0FC018081882F90E00D
:101A500080729927892B91F0809131019091320108
:101A6000892B61F480917C0290917D020B9710F09C
:101A700010922F0110927D0210927C0280918902B7
:101A80008A3071F480919102882351F480912F0162
:101A9000813019F484E18093890281E0809391027E
:101AA00080918902843151F480919102882331F42C
:101AB0008EE18093890281E0809391028091890276
:101AC0008E3109F03FC0809191028823D9F5809131
:101AD000680090916900CC01A0E0B0E0BC01CD01AC
:101AE0000E949E127B018C01809178029091790274
:101AF000A0917A02B0917B029C01AD01C801B701AF
:101B00000E94FD11DC01CB019C01AD01BC01CD01A6
:101B10000E949111DC01CB01BC01CD010E946F122A
:101B2000DC01CB0190936502809364028091640292
:101B3000909165020E94D00388E28093890281E03F
:101B40008093910280918902883271F48091910290
:101B5000882351F480912001882319F482E3809333
:101B6000890281E08093910280918902823369F435
:101B700080919102882349F48091610290916202E0
:101B8000892B19F081E08093910280918902823340
:101B900069F480919102882349F48AE0809343019B
:101BA0008CE38093890281E0809391028091890285
:101BB0008C3371F480919102882351F48091430118
:101BC000882319F486E48093890281E0809391024E
:101BD00080918902863451F480919102882331F4F6
:101BE0008AE08093890281E08093910210929102B1
:101BF000809143018A3069F480916302882349F41B
:101C000080918C0290918D02892B19F081E0809354
:101C10006302809143018A3099F4809163028823A2
:101C200079F485E390E025E330E0F9012081286034
:101C3000FC01208384E18093430181E0809363026F
:101C4000809143018431A1F480916302882381F45F
:101C500080E390E0FC018081882F90E080749927D8
:101C6000892B19F08EE18093430181E08093630218
:101C7000809143018E31E9F4809163028823C9F495
:101C800080E390E0FC018081882F90E080749927A8
:101C9000892B61F488E28093430185E390E025E39A
:101CA00030E0F9012081277FFC01208381E08093CF
:101CB000630280914301883249F480916302882352
:101CC00029F41092430181E0809363021092630231
:101CD00080916C028A30D9F480913E018823B9F456
:101CE00083E390E0FC018081882F90E08074992745
:101CF000892B39F081E080932C0184E180936C0280
:101D000003C084E180936C0281E080933E01809166
:101D10006C028431B1F480913E01882391F483E315
:101D200090E0FC018081882F90E080749927892BB6
:101D300029F410922C018EE180936C0281E0809353
:101D40003E0180916C028E3199F480913E0188238E
:101D500079F483E390E0FC018081882334F081E012
:101D600080932C0184E180936C0281E080933E019A
:101D700010923E0130CBCF93DF9300D0CDB7DEB7CA
:101D80009A83898389819A81892B11F400C006C0C6
:101D900089819A810197F1F79A83898300000F90D6
:101DA0000F90DF91CF910895CF93DF931F92CDB71E
:101DB000DEB7898388E390E028E330E0F9012081F1
:101DC000322F3F702981207F232BFC01208388E361
:101DD00090E028E330E0F90120812E7FFC01208390
:101DE00088E390E028E330E0F90120812860FC01DD
:101DF000208300C088E390E028E330E0F9012081EF
:101E0000277FFC01208385E090E00E94BB0E88E3E1
:101E100090E028E330E0F9012081422F4F702981C2
:101E2000222F30E022953295307F3227207F3227D3
:101E3000242BFC01208388E390E028E330E0F901C3
:101E400020812860FC01208300C088E390E028E323
:101E500030E0F9012081277FFC01208388E995E1AA
:101E60000E94BB0E00000F90DF91CF910895CF9399
:101E7000DF93CDB7DEB764970FB6F894DEBF0FBE21
:101E8000CDBF8C8B88E390E028E330E0F90120811E
:101E9000322F3F702C89207F232BFC01208388E385
:101EA00090E028E330E0F90120812160FC012083EB
:101EB00088E390E028E330E0F90120812860FC010C
:101EC000208300C088E390E028E330E0F90120811E
:101ED000277FFC01208385E090E00E94BB0E88E311
:101EE00090E028E330E0F9012081422F4F702C89E7
:101EF000222F30E022953295307F3227207F322703
:101F0000242BFC01208388E390E028E330E0F901F2
:101F100020812860FC01208300C088E390E028E352
:101F200030E0F9012081277FFC01208386E190E0E9
:101F3000A0E0B0E089839A83AB83BC8389819A81D6
:101F4000AB81BC810D97A105B10548F489819A81C7
:101F5000AB81BC818D839E83AF83B887CBC08981E1
:101F60009A81AB81BC8181309440A105B105C0F557
:101F700089819A81AB81BC810197A109B1098983CB
:101F80009A83AB83BC8389819A81AB81BC81B695EE
:101F9000A79597958795B695A795979587958987DE
:101FA0009A87AB87BC8789819A81AB81BC8183701A
:101FB0009927AA27BB278D839E83AF83B8878985FE
:101FC0009A85AB85BC85892B8A2B8B2B09F492C013
:101FD00089858D878D858A9501F0E9F78D878AC07F
:101FE00089819A81AB81BC810297A440B10508F038
:101FF0003CC089819A81AB81BC810297A109B1095A
:1020000089839A83AB83BC8389819A81AB81BC81AC
:10201000B695A79597958795B695A7959795879522
:1020200089879A87AB87BC8789819A81AB81BC817C
:1020300083709927AA27BB278D839E83AF83B88798
:1020400089859A85AB85BC85892B8A2B8B2B09F4D6
:1020500051C089859A859F878E878E859F85019738
:10206000F1F700009F878E8745C089819A81AB81F7
:10207000BC810497A109B10989839A83AB83BC838E
:1020800089819A81AB81BC81689412F8B695A79535
:10209000979587951694D1F789879A87AB87BC87E0
:1020A00089819A81AB81BC8187709927AA27BB2738
:1020B0008D839E83AF83B88789859A85AB85BC85E0
:1020C000892B8A2B8B2BB1F089859A85AB85BC85B2
:1020D000888B998BAA8BBB8B88899989AA89BB89A4
:1020E0000197A109B109000001F0D1F7888B998B04
:1020F000AA8BBB8B8D819E81AF81B8850197A1058D
:10210000B10509F400008D819E81AF81B8850297E9
:10211000A105B10509F400C08D819E81AF81B8850C
:102120000397A105B10509F4C8958D819E81AF8102
:10213000B8850497A105B10511F4C89500008D81FB
:102140009E81AF81B8850597A105B10511F4C895A9
:1021500000C08D819E81AF81B8850697A105B1052C
:1021600011F4C895C8958D819E81AF81B885079778
:10217000A105B10519F4C895C89500008D819E810F
:10218000AF81B8850897A105B10519F4C895C89520
:1021900000C08D819E81AF81B8850997A105B105E9
:1021A00019F4C895C895C8958D819E81AF81B88571
:1021B0000A97A105B10521F4C895C895C8950000F6
:1021C0008D819E81AF81B8850B97A105B10521F462
:1021D000C895C895C89500C08D819E81AF81B8858E
:1021E0000C97A105B10521F4C895C895C895C89567
:1021F000000064960FB6F894DEBF0FBECDBFDF912E
:10220000CF910895CF93DF93CDB7DEB787E390E00A
:102210002DEFFC01208380EC9CEA0E94BB0E82E043
:102220000E94D40E88E20E94D40E8CE00E94D40E4C
:1022300086E00E94D40E81E00E94D40E88E20E94C3
:10224000D40E88E00E94D40E0E94851186E00E9480
:10225000D40E8CE00E94D40E0000DF91CF9108953F
:10226000CF93DF9300D000D0CDB7DEB79C838B83B4
:102270001A8219820FC089819A812B813C81820F39
:10228000931FFC0180810E94370F89819A810196FA
:102290009A83898389819A812B813C81820F931F44
:1022A000FC018081882339F700000F900F900F9078
:1022B0000F90DF91CF910895CF93DF9300D0CDB7EA
:1022C000DEB789836A838A81882329F489818058CB
:1022D0000E94D40E14C08A81813029F489818054EF
:1022E0000E94D40E0CC08A81823029F489818C56D8
:1022F0000E94D40E04C089818C520E94D40E00002A
:102300000F900F90DF91CF910895CF93DF93CDB7CA
:10231000DEB781E00E94D40E0000DF91CF910895D6
:102320005058BB27AA270E94A8110C94F2120E94B1
:10233000E41238F00E94EB1220F039F49F3F19F4B8
:1023400026F40C94E1120EF4E095E7FB0C94DB12FA
:10235000E92F0E94031358F3BA1762077307840723
:10236000950720F079F4A6F50C9425130EF4E0956A
:102370000B2EBA2FA02D0B01B90190010C01CA013F
:10238000A0011124FF27591B99F0593F50F4503EEA
:1023900068F11A16F040A22F232F342F4427585FDC
:1023A000F3CF469537952795A795F0405395C9F7F4
:1023B0007EF41F16BA0B620B730B840BBAF09150AC
:1023C000A1F0FF0FBB1F661F771F881FC2F70EC04B
:1023D000BA0F621F731F841F48F48795779567951E
:1023E000B795F7959E3F08F0B0CF9395880F08F00A
:1023F0009927EE0F9795879508950E9411120C94D6
:10240000F2120E94EB1258F00E94E41240F029F4FC
:102410005F3F29F00C94DB1251110C9426130C949D
:10242000E1120E94031368F39923B1F3552391F34A
:10243000951B550BBB27AA2762177307840738F033
:102440009F5F5F4F220F331F441FAA1FA9F335D090
:102450000E2E3AF0E0E832D091505040E695001C44
:10246000CAF72BD0FE2F29D0660F771F881FBB1FFE
:10247000261737074807AB07B0E809F0BB0B802DDC
:10248000BF01FF2793585F4F3AF09E3F510578F008
:102490000C94DB120C9426135F3FE4F3983ED4F3C4
:1024A000869577956795B795F7959F5FC9F7880FDC
:1024B000911D9695879597F90895E1E0660F771F2E
:1024C000881FBB1F621773078407BA0720F0621BBF
:1024D000730B840BBA0BEE1F88F7E09508950E94EA
:1024E0000B1388F09F5798F0B92F9927B751B0F088
:1024F000E1F0660F771F881F991F1AF0BA95C9F788
:1025000014C0B13091F00E942513B1E008950C94ED
:102510002513672F782F8827B85F39F0B93FCCF3A0
:10252000869577956795B395D9F73EF49095809504
:10253000709561957F4F8F4F9F4F0895E89409C024
:1025400097FB3EF490958095709561957F4F8F4FE6
:102550009F4F9923A9F0F92F96E9BB279395F695FC
:10256000879577956795B795F111F8CFFAF4BB0F7A
:1025700011F460FF1BC06F5F7F4F8F4F9F4F16C0DE
:10258000882311F096E911C0772321F09EE8872F68
:10259000762F05C0662371F096E8862F70E060E024
:1025A0002AF09A95660F771F881FDAF7880F96959D
:1025B000879597F9089597F99F6780E870E060E044
:1025C00008959FEF80EC089500240A9416161706CC
:1025D00018060906089500240A9412161306140614
:1025E00005060895092E0394000C11F4882352F077
:1025F000BB0F40F4BF2B11F460FF04C06F5F7F4F2F
:102600008F4F9F4F089557FD9058440F551F59F015
:102610005F3F71F04795880F97FB991F61F09F3FCF
:1026200079F087950895121613061406551FF2CFF8
:102630004695F1DF08C0161617061806991FF1CF48
:1026400086957105610508940895E894BB2766276F
:102650007727CB0197F908950E943F130C94F2124B
:102660000E94E41238F00E94EB1220F0952311F042
:102670000C94DB120C94E11211240C9426130E948A
:10268000031370F3959FC1F3950F50E0551F629FA0
:10269000F001729FBB27F00DB11D639FAA27F00DBB
:1026A000B11DAA1F649F6627B00DA11D661F829FE2
:1026B0002227B00DA11D621F739FB00DA11D621FC7
:1026C000839FA00D611D221F749F3327A00D611DE4
:1026D000231F849F600D211D822F762F6A2F1124C6
:1026E0009F5750409AF0F1F088234AF0EE0FFF1FF9
:1026F000BB1F661F771F881F91505040A9F79E3F50
:10270000510580F00C94DB120C9426135F3FE4F328
:10271000983ED4F3869577956795B795F795E795A5
:102720009F5FC1F7FE2B880F911D9695879597F9AE
:1027300008954532510520F4423010F00C94A41352
:10274000FB011082CB010895BB274A3031F4992355
:1027500022F4BDE2909581959F4F0C94B013BB2756
:10276000FB015527AA27880F991FAA1FA41710F04D
:10277000A41B83955051B9F7A05DAA3308F0A95D59
:10278000A193009779F7B111B1931192CB010C94F9
:10279000C913DC01FC01672F71917723E1F73297B0
:1027A00004C07C916D9370836291AE17BF07C8F32C
:1027B0000895A8E1B0E042E050E00C94E6130E94D6
:1027C000F413272F0C94F513DC01CB01FC01E199E4
:1027D000FECF06C0FFBBEEBBE09A31960DB20D9264
:1027E00041505040B8F70895262FE199FECF9FBB86
:1027F0008EBB2DBB0FB6F894E29AE19A0FBE0196FC
:062800000895F894FFCFDB
:10280600FF0032001E000A00D0077B1482424006F9
:10281600D0072020205061706572205374616D705E
:10282600696E67202000202020202020204D616333
:1028360068696E652020202020002020202020208E
:10284600202076312E3020202020202020005661A6
:102856006C756573207265736574002020202020D6
:102866002052756E6E696E67202020202020200081
:1028760020202020202053746F7070696E672020FE
:10288600202020200020202020202053746F7070EC
:1028960065642020202020202000536574204C658C
:1028A6006E6774683A00206D6D2020004C656E6777
:0E28B6007468006D6D3A0074696D6500200055
:00000001FF
